{
  "contractName": "CallerContract",
  "abi": [
    {
      "anonymous": false,
      "inputs": [
        {
          "indexed": true,
          "internalType": "address",
          "name": "previousOwner",
          "type": "address"
        },
        {
          "indexed": true,
          "internalType": "address",
          "name": "newOwner",
          "type": "address"
        }
      ],
      "name": "OwnershipTransferred",
      "type": "event"
    },
    {
      "anonymous": false,
      "inputs": [
        {
          "indexed": false,
          "internalType": "uint256",
          "name": "ethPrice",
          "type": "uint256"
        },
        {
          "indexed": false,
          "internalType": "uint256",
          "name": "id",
          "type": "uint256"
        }
      ],
      "name": "PriceUpdatedEvent",
      "type": "event"
    },
    {
      "anonymous": false,
      "inputs": [
        {
          "indexed": false,
          "internalType": "uint256",
          "name": "id",
          "type": "uint256"
        }
      ],
      "name": "ReceivedNewRequestIdEvent",
      "type": "event"
    },
    {
      "anonymous": false,
      "inputs": [
        {
          "indexed": false,
          "internalType": "address",
          "name": "oracleAddress",
          "type": "address"
        }
      ],
      "name": "newOracleAddressEvent",
      "type": "event"
    },
    {
      "inputs": [],
      "name": "owner",
      "outputs": [
        {
          "internalType": "address",
          "name": "",
          "type": "address"
        }
      ],
      "stateMutability": "view",
      "type": "function",
      "constant": true
    },
    {
      "inputs": [],
      "name": "renounceOwnership",
      "outputs": [],
      "stateMutability": "nonpayable",
      "type": "function"
    },
    {
      "inputs": [
        {
          "internalType": "address",
          "name": "newOwner",
          "type": "address"
        }
      ],
      "name": "transferOwnership",
      "outputs": [],
      "stateMutability": "nonpayable",
      "type": "function"
    },
    {
      "inputs": [
        {
          "internalType": "address",
          "name": "_oracleInstanceAddress",
          "type": "address"
        }
      ],
      "name": "setOracleInstanceAddress",
      "outputs": [],
      "stateMutability": "nonpayable",
      "type": "function"
    },
    {
      "inputs": [],
      "name": "updateEthPrice",
      "outputs": [],
      "stateMutability": "nonpayable",
      "type": "function"
    },
    {
      "inputs": [
        {
          "internalType": "uint256",
          "name": "_ethPrice",
          "type": "uint256"
        },
        {
          "internalType": "uint256",
          "name": "_id",
          "type": "uint256"
        }
      ],
      "name": "callback",
      "outputs": [],
      "stateMutability": "nonpayable",
      "type": "function"
    }
  ],
  "bytecode": "0x608060405234801561001057600080fd5b5061002d61002261003260201b60201c565b61003a60201b60201c565b6100fe565b600033905090565b60008060009054906101000a900473ffffffffffffffffffffffffffffffffffffffff169050816000806101000a81548173ffffffffffffffffffffffffffffffffffffffff021916908373ffffffffffffffffffffffffffffffffffffffff1602179055508173ffffffffffffffffffffffffffffffffffffffff168173ffffffffffffffffffffffffffffffffffffffff167f8be0079c531659141344cd1fd0a4f28419497f9722a3daafe3b4186f6b6457e060405160405180910390a35050565b610b608061010d6000396000f3fe608060405234801561001057600080fd5b50600436106100625760003560e01c806323c7e4a214610067578063715018a6146100715780638da5cb5b1461007b578063b5d73ba414610099578063e9e17a9e146100b5578063f2fde38b146100d1575b600080fd5b61006f6100ed565b005b6100796101ea565b005b610083610272565b6040516100909190610773565b60405180910390f35b6100b360048036038101906100ae91906107c9565b61029b565b005b6100cf60048036038101906100ca9190610835565b6103f2565b005b6100eb60048036038101906100e69190610835565b61056e565b005b6000600260009054906101000a900473ffffffffffffffffffffffffffffffffffffffff1673ffffffffffffffffffffffffffffffffffffffff166330c0b9ec6040518163ffffffff1660e01b81526004016020604051808303816000875af115801561015e573d6000803e3d6000fd5b505050506040513d601f19601f820116820180604052508101906101829190610877565b905060016004600083815260200190815260200160002060006101000a81548160ff0219169083151502179055507f3ed150819af981e387450beb90ec379b8b322150dbb299d492b108c59a623e4b816040516101df91906108b3565b60405180910390a150565b6101f2610666565b73ffffffffffffffffffffffffffffffffffffffff16610210610272565b73ffffffffffffffffffffffffffffffffffffffff1614610266576040517f08c379a000000000000000000000000000000000000000000000000000000000815260040161025d9061092b565b60405180910390fd5b610270600061066e565b565b60008060009054906101000a900473ffffffffffffffffffffffffffffffffffffffff16905090565b600360009054906101000a900473ffffffffffffffffffffffffffffffffffffffff1673ffffffffffffffffffffffffffffffffffffffff163373ffffffffffffffffffffffffffffffffffffffff161461032b576040517f08c379a0000000000000000000000000000000000000000000000000000000008152600401610322906109bd565b60405180910390fd5b6004600082815260200190815260200160002060009054906101000a900460ff1661038b576040517f08c379a000000000000000000000000000000000000000000000000000000000815260040161038290610a4f565b60405180910390fd5b816001819055506004600082815260200190815260200160002060006101000a81549060ff02191690557f6b69e4f2aedf7e65a79ecaf16e8869b2b99c87e341f2c51286bfd4a7fc3b996982826040516103e6929190610a6f565b60405180910390a15050565b6103fa610666565b73ffffffffffffffffffffffffffffffffffffffff16610418610272565b73ffffffffffffffffffffffffffffffffffffffff161461046e576040517f08c379a00000000000000000000000000000000000000000000000000000000081526004016104659061092b565b60405180910390fd5b80600360006101000a81548173ffffffffffffffffffffffffffffffffffffffff021916908373ffffffffffffffffffffffffffffffffffffffff160217905550600360009054906101000a900473ffffffffffffffffffffffffffffffffffffffff16600260006101000a81548173ffffffffffffffffffffffffffffffffffffffff021916908373ffffffffffffffffffffffffffffffffffffffff1602179055507f441e3b056b114797955165bd03bb8393fc1658a713f09225de4745a8d068bf7d600360009054906101000a900473ffffffffffffffffffffffffffffffffffffffff166040516105639190610773565b60405180910390a150565b610576610666565b73ffffffffffffffffffffffffffffffffffffffff16610594610272565b73ffffffffffffffffffffffffffffffffffffffff16146105ea576040517f08c379a00000000000000000000000000000000000000000000000000000000081526004016105e19061092b565b60405180910390fd5b600073ffffffffffffffffffffffffffffffffffffffff168173ffffffffffffffffffffffffffffffffffffffff16141561065a576040517f08c379a000000000000000000000000000000000000000000000000000000000815260040161065190610b0a565b60405180910390fd5b6106638161066e565b50565b600033905090565b60008060009054906101000a900473ffffffffffffffffffffffffffffffffffffffff169050816000806101000a81548173ffffffffffffffffffffffffffffffffffffffff021916908373ffffffffffffffffffffffffffffffffffffffff1602179055508173ffffffffffffffffffffffffffffffffffffffff168173ffffffffffffffffffffffffffffffffffffffff167f8be0079c531659141344cd1fd0a4f28419497f9722a3daafe3b4186f6b6457e060405160405180910390a35050565b600073ffffffffffffffffffffffffffffffffffffffff82169050919050565b600061075d82610732565b9050919050565b61076d81610752565b82525050565b60006020820190506107886000830184610764565b92915050565b600080fd5b6000819050919050565b6107a681610793565b81146107b157600080fd5b50565b6000813590506107c38161079d565b92915050565b600080604083850312156107e0576107df61078e565b5b60006107ee858286016107b4565b92505060206107ff858286016107b4565b9150509250929050565b61081281610752565b811461081d57600080fd5b50565b60008135905061082f81610809565b92915050565b60006020828403121561084b5761084a61078e565b5b600061085984828501610820565b91505092915050565b6000815190506108718161079d565b92915050565b60006020828403121561088d5761088c61078e565b5b600061089b84828501610862565b91505092915050565b6108ad81610793565b82525050565b60006020820190506108c860008301846108a4565b92915050565b600082825260208201905092915050565b7f4f776e61626c653a2063616c6c6572206973206e6f7420746865206f776e6572600082015250565b60006109156020836108ce565b9150610920826108df565b602082019050919050565b6000602082019050818103600083015261094481610908565b9050919050565b7f596f7520617265206e6f7420617574686f72697a656420746f2063616c6c207460008201527f6869732066756e6374696f6e2e00000000000000000000000000000000000000602082015250565b60006109a7602d836108ce565b91506109b28261094b565b604082019050919050565b600060208201905081810360008301526109d68161099a565b9050919050565b7f546869732072657175657374206973206e6f7420696e206d792070656e64696e60008201527f67206c6973742e00000000000000000000000000000000000000000000000000602082015250565b6000610a396027836108ce565b9150610a44826109dd565b604082019050919050565b60006020820190508181036000830152610a6881610a2c565b9050919050565b6000604082019050610a8460008301856108a4565b610a9160208301846108a4565b9392505050565b7f4f776e61626c653a206e6577206f776e657220697320746865207a65726f206160008201527f6464726573730000000000000000000000000000000000000000000000000000602082015250565b6000610af46026836108ce565b9150610aff82610a98565b604082019050919050565b60006020820190508181036000830152610b2381610ae7565b905091905056fea26469706673582212204e203de147152cd68d26c9c03bec652d46aa44f8c51152436a728e9c06debf3e64736f6c634300080b0033",
  "immutableReferences": {},
  "source": "// SPDX-License-Identifier: MIT\r\npragma solidity >=0.4.22 <0.9.0;\r\n\r\nimport \"./EthPriceOracleInterface.sol\";\r\nimport \"@openzeppelin/contracts/access/Ownable.sol\";\r\n\r\ncontract CallerContract is Ownable {\r\n    uint256 private ethPrice;\r\n    EthPriceOracleInterface private oracleInstance;\r\n    address private oracleAddress;\r\n    mapping(uint256 => bool) myRequests;\r\n    event newOracleAddressEvent(address oracleAddress);\r\n    event ReceivedNewRequestIdEvent(uint256 id);\r\n    event PriceUpdatedEvent(uint256 ethPrice, uint256 id);\r\n\r\n    function setOracleInstanceAddress(address _oracleInstanceAddress) public onlyOwner\r\n    {\r\n        oracleAddress = _oracleInstanceAddress;\r\n        oracleInstance = EthPriceOracleInterface(oracleAddress);\r\n        emit newOracleAddressEvent(oracleAddress);\r\n    }\r\n\r\n    function updateEthPrice() public {\r\n        uint256 id = oracleInstance.getLatestEthPrice();\r\n        myRequests[id] = true;\r\n        emit ReceivedNewRequestIdEvent(id);\r\n    }\r\n\r\n    function callback(uint256 _ethPrice, uint256 _id) public onlyOracle {\r\n        require(myRequests[_id], \"This request is not in my pending list.\");\r\n        ethPrice = _ethPrice;\r\n        delete myRequests[_id];\r\n        emit PriceUpdatedEvent(_ethPrice, _id);\r\n    }\r\n\r\n    modifier onlyOracle() {\r\n        require(\r\n            msg.sender == oracleAddress,\r\n            \"You are not authorized to call this function.\"\r\n        );\r\n        _;\r\n    }\r\n}\r\n",
  "sourcePath": "E:/LamViec/STECH_Corp/Intership/EthPriceOracle/oracle/contracts/CallerContract.sol",
  "compiler": {
    "name": "solc",
    "version": "0.8.11+commit.d7f03943.Emscripten.clang"
  },
  "schemaVersion": "3.3.4",
  "updatedAt": "2022-01-20T08:11:05.131Z",
  "networkType": "ethereum",
  "devdoc": {
    "kind": "dev",
    "methods": {
      "owner()": {
        "details": "Returns the address of the current owner."
      },
      "renounceOwnership()": {
        "details": "Leaves the contract without owner. It will not be possible to call `onlyOwner` functions anymore. Can only be called by the current owner. NOTE: Renouncing ownership will leave the contract without an owner, thereby removing any functionality that is only available to the owner."
      },
      "transferOwnership(address)": {
        "details": "Transfers ownership of the contract to a new account (`newOwner`). Can only be called by the current owner."
      }
    },
    "version": 1
  },
  "userdoc": {
    "kind": "user",
    "methods": {},
    "version": 1
  }
}