{
  "contractName": "EthPriceOracle",
  "abi": [
    {
      "inputs": [
        {
          "internalType": "address",
          "name": "_owner",
          "type": "address"
        }
      ],
      "stateMutability": "nonpayable",
      "type": "constructor"
    },
    {
      "anonymous": false,
      "inputs": [
        {
          "indexed": false,
          "internalType": "address",
          "name": "oracleAddress",
          "type": "address"
        }
      ],
      "name": "AddOracleEvent",
      "type": "event"
    },
    {
      "anonymous": false,
      "inputs": [
        {
          "indexed": false,
          "internalType": "address",
          "name": "callerAddress",
          "type": "address"
        },
        {
          "indexed": false,
          "internalType": "uint256",
          "name": "id",
          "type": "uint256"
        }
      ],
      "name": "GetLatestEthPriceEvent",
      "type": "event"
    },
    {
      "anonymous": false,
      "inputs": [
        {
          "indexed": false,
          "internalType": "address",
          "name": "oracleAddress",
          "type": "address"
        }
      ],
      "name": "RemoveOracleEvent",
      "type": "event"
    },
    {
      "anonymous": false,
      "inputs": [
        {
          "indexed": true,
          "internalType": "bytes32",
          "name": "role",
          "type": "bytes32"
        },
        {
          "indexed": true,
          "internalType": "bytes32",
          "name": "previousAdminRole",
          "type": "bytes32"
        },
        {
          "indexed": true,
          "internalType": "bytes32",
          "name": "newAdminRole",
          "type": "bytes32"
        }
      ],
      "name": "RoleAdminChanged",
      "type": "event"
    },
    {
      "anonymous": false,
      "inputs": [
        {
          "indexed": true,
          "internalType": "bytes32",
          "name": "role",
          "type": "bytes32"
        },
        {
          "indexed": true,
          "internalType": "address",
          "name": "account",
          "type": "address"
        },
        {
          "indexed": true,
          "internalType": "address",
          "name": "sender",
          "type": "address"
        }
      ],
      "name": "RoleGranted",
      "type": "event"
    },
    {
      "anonymous": false,
      "inputs": [
        {
          "indexed": true,
          "internalType": "bytes32",
          "name": "role",
          "type": "bytes32"
        },
        {
          "indexed": true,
          "internalType": "address",
          "name": "account",
          "type": "address"
        },
        {
          "indexed": true,
          "internalType": "address",
          "name": "sender",
          "type": "address"
        }
      ],
      "name": "RoleRevoked",
      "type": "event"
    },
    {
      "anonymous": false,
      "inputs": [
        {
          "indexed": false,
          "internalType": "uint256",
          "name": "ethPrice",
          "type": "uint256"
        },
        {
          "indexed": false,
          "internalType": "address",
          "name": "callerAddress",
          "type": "address"
        }
      ],
      "name": "SetLatestEthPriceEvent",
      "type": "event"
    },
    {
      "anonymous": false,
      "inputs": [
        {
          "indexed": false,
          "internalType": "uint256",
          "name": "threshold",
          "type": "uint256"
        }
      ],
      "name": "SetThresholdEvent",
      "type": "event"
    },
    {
      "inputs": [],
      "name": "DEFAULT_ADMIN_ROLE",
      "outputs": [
        {
          "internalType": "bytes32",
          "name": "",
          "type": "bytes32"
        }
      ],
      "stateMutability": "view",
      "type": "function",
      "constant": true
    },
    {
      "inputs": [],
      "name": "ORACLE",
      "outputs": [
        {
          "internalType": "bytes32",
          "name": "",
          "type": "bytes32"
        }
      ],
      "stateMutability": "view",
      "type": "function",
      "constant": true
    },
    {
      "inputs": [],
      "name": "OWNER",
      "outputs": [
        {
          "internalType": "bytes32",
          "name": "",
          "type": "bytes32"
        }
      ],
      "stateMutability": "view",
      "type": "function",
      "constant": true
    },
    {
      "inputs": [
        {
          "internalType": "bytes32",
          "name": "role",
          "type": "bytes32"
        }
      ],
      "name": "getRoleAdmin",
      "outputs": [
        {
          "internalType": "bytes32",
          "name": "",
          "type": "bytes32"
        }
      ],
      "stateMutability": "view",
      "type": "function",
      "constant": true
    },
    {
      "inputs": [
        {
          "internalType": "bytes32",
          "name": "role",
          "type": "bytes32"
        },
        {
          "internalType": "uint256",
          "name": "index",
          "type": "uint256"
        }
      ],
      "name": "getRoleMember",
      "outputs": [
        {
          "internalType": "address",
          "name": "",
          "type": "address"
        }
      ],
      "stateMutability": "view",
      "type": "function",
      "constant": true
    },
    {
      "inputs": [
        {
          "internalType": "bytes32",
          "name": "role",
          "type": "bytes32"
        }
      ],
      "name": "getRoleMemberCount",
      "outputs": [
        {
          "internalType": "uint256",
          "name": "",
          "type": "uint256"
        }
      ],
      "stateMutability": "view",
      "type": "function",
      "constant": true
    },
    {
      "inputs": [
        {
          "internalType": "bytes32",
          "name": "role",
          "type": "bytes32"
        },
        {
          "internalType": "address",
          "name": "account",
          "type": "address"
        }
      ],
      "name": "grantRole",
      "outputs": [],
      "stateMutability": "nonpayable",
      "type": "function"
    },
    {
      "inputs": [
        {
          "internalType": "bytes32",
          "name": "role",
          "type": "bytes32"
        },
        {
          "internalType": "address",
          "name": "account",
          "type": "address"
        }
      ],
      "name": "hasRole",
      "outputs": [
        {
          "internalType": "bool",
          "name": "",
          "type": "bool"
        }
      ],
      "stateMutability": "view",
      "type": "function",
      "constant": true
    },
    {
      "inputs": [
        {
          "internalType": "bytes32",
          "name": "role",
          "type": "bytes32"
        },
        {
          "internalType": "address",
          "name": "account",
          "type": "address"
        }
      ],
      "name": "renounceRole",
      "outputs": [],
      "stateMutability": "nonpayable",
      "type": "function"
    },
    {
      "inputs": [
        {
          "internalType": "bytes32",
          "name": "role",
          "type": "bytes32"
        },
        {
          "internalType": "address",
          "name": "account",
          "type": "address"
        }
      ],
      "name": "revokeRole",
      "outputs": [],
      "stateMutability": "nonpayable",
      "type": "function"
    },
    {
      "inputs": [
        {
          "internalType": "bytes4",
          "name": "interfaceId",
          "type": "bytes4"
        }
      ],
      "name": "supportsInterface",
      "outputs": [
        {
          "internalType": "bool",
          "name": "",
          "type": "bool"
        }
      ],
      "stateMutability": "view",
      "type": "function",
      "constant": true
    },
    {
      "inputs": [
        {
          "internalType": "address",
          "name": "_oracle",
          "type": "address"
        }
      ],
      "name": "addOracle",
      "outputs": [],
      "stateMutability": "nonpayable",
      "type": "function"
    },
    {
      "inputs": [
        {
          "internalType": "address",
          "name": "_oracle",
          "type": "address"
        }
      ],
      "name": "removeOracle",
      "outputs": [],
      "stateMutability": "nonpayable",
      "type": "function"
    },
    {
      "inputs": [
        {
          "internalType": "uint256",
          "name": "_threshold",
          "type": "uint256"
        }
      ],
      "name": "setThreshold",
      "outputs": [],
      "stateMutability": "nonpayable",
      "type": "function"
    },
    {
      "inputs": [],
      "name": "getLatestEthPrice",
      "outputs": [
        {
          "internalType": "uint256",
          "name": "",
          "type": "uint256"
        }
      ],
      "stateMutability": "nonpayable",
      "type": "function"
    },
    {
      "inputs": [
        {
          "internalType": "uint256",
          "name": "_ethPrice",
          "type": "uint256"
        },
        {
          "internalType": "address",
          "name": "_callerAddress",
          "type": "address"
        },
        {
          "internalType": "uint256",
          "name": "_id",
          "type": "uint256"
        }
      ],
      "name": "setLatestEthPrice",
      "outputs": [],
      "stateMutability": "nonpayable",
      "type": "function"
    }
  ],
  "bytecode": "0x608060405260006002556103e8600355600060045560006005553480156200002657600080fd5b506040516200280f3803806200280f83398181016040528101906200004c91906200048b565b6200007e7f6270edb7c868f86fda4adedba75108201087268ea345934db8bad688e1feb91b826200010960201b60201c565b620000b07f352d05fe3946dbe49277552ba941e744d5a96d9c60bc1ba0ea5f1d3ae000f7c8826200010960201b60201c565b620001027f352d05fe3946dbe49277552ba941e744d5a96d9c60bc1ba0ea5f1d3ae000f7c87f6270edb7c868f86fda4adedba75108201087268ea345934db8bad688e1feb91b6200011f60201b60201c565b50620004bd565b6200011b82826200018260201b60201c565b5050565b60006200013283620001ca60201b60201c565b905081600080858152602001908152602001600020600101819055508181847fbd79b86ffe0ab8e8776151514217cd7cacd52c909f66475c3af44e129f0b00ff60405160405180910390a4505050565b620001998282620001e960201b62000da91760201c565b620001c58160016000858152602001908152602001600020620002da60201b62000e891790919060201c565b505050565b6000806000838152602001908152602001600020600101549050919050565b620001fb82826200031260201b60201c565b620002d657600160008084815260200190815260200160002060000160008373ffffffffffffffffffffffffffffffffffffffff1673ffffffffffffffffffffffffffffffffffffffff16815260200190815260200160002060006101000a81548160ff0219169083151502179055506200027b6200037c60201b60201c565b73ffffffffffffffffffffffffffffffffffffffff168173ffffffffffffffffffffffffffffffffffffffff16837f2f8788117e7eff1d82e926ec794901d17c78024a50270940304540a733656f0d60405160405180910390a45b5050565b60006200030a836000018373ffffffffffffffffffffffffffffffffffffffff1660001b6200038460201b60201c565b905092915050565b600080600084815260200190815260200160002060000160008373ffffffffffffffffffffffffffffffffffffffff1673ffffffffffffffffffffffffffffffffffffffff16815260200190815260200160002060009054906101000a900460ff16905092915050565b600033905090565b6000620003988383620003fe60201b60201c565b620003f3578260000182908060018154018082558091505060019003906000526020600020016000909190919091505582600001805490508360010160008481526020019081526020016000208190555060019050620003f8565b600090505b92915050565b600080836001016000848152602001908152602001600020541415905092915050565b600080fd5b600073ffffffffffffffffffffffffffffffffffffffff82169050919050565b6000620004538262000426565b9050919050565b620004658162000446565b81146200047157600080fd5b50565b60008151905062000485816200045a565b92915050565b600060208284031215620004a457620004a362000421565b5b6000620004b48482850162000474565b91505092915050565b61234280620004cd6000396000f3fe608060405234801561001057600080fd5b50600436106101005760003560e01c806391d1485411610097578063cf642f1f11610066578063cf642f1f146102c1578063d547741f146102dd578063df5dd1a5146102f9578063fdc85fc41461031557610100565b806391d1485414610227578063960bfe0414610257578063a217fddf14610273578063ca15c8731461029157610100565b806330c0b9ec116100d357806330c0b9ec1461019f57806336568abe146101bd57806338013f02146101d95780639010d07c146101f757610100565b806301ffc9a714610105578063117803e314610135578063248a9ca3146101535780632f2ff15d14610183575b600080fd5b61011f600480360381019061011a9190611739565b610331565b60405161012c9190611781565b60405180910390f35b61013d6103ab565b60405161014a91906117b5565b60405180910390f35b61016d600480360381019061016891906117fc565b6103cf565b60405161017a91906117b5565b60405180910390f35b61019d60048036038101906101989190611887565b6103ee565b005b6101a7610417565b6040516101b491906118e0565b60405180910390f35b6101d760048036038101906101d29190611887565b6104e2565b005b6101e1610565565b6040516101ee91906117b5565b60405180910390f35b610211600480360381019061020c9190611927565b610589565b60405161021e9190611976565b60405180910390f35b610241600480360381019061023c9190611887565b6105b8565b60405161024e9190611781565b60405180910390f35b610271600480360381019061026c9190611991565b610622565b005b61027b6106ce565b60405161028891906117b5565b60405180910390f35b6102ab60048036038101906102a691906117fc565b6106d5565b6040516102b891906118e0565b60405180910390f35b6102db60048036038101906102d691906119be565b6106f9565b005b6102f760048036038101906102f29190611887565b610a96565b005b610313600480360381019061030e9190611a11565b610abf565b005b61032f600480360381019061032a9190611a11565b610c12565b005b60007f5a05180f000000000000000000000000000000000000000000000000000000007bffffffffffffffffffffffffffffffffffffffffffffffffffffffff1916827bffffffffffffffffffffffffffffffffffffffffffffffffffffffff191614806103a457506103a382610eb9565b5b9050919050565b7f6270edb7c868f86fda4adedba75108201087268ea345934db8bad688e1feb91b81565b6000806000838152602001908152602001600020600101549050919050565b6103f7826103cf565b61040881610403610f33565b610f3b565b6104128383610fd8565b505050565b600061042f600160025461100c90919063ffffffff16565b6002819055506000600354423360025460405160200161045193929190611aa7565b6040516020818303038152906040528051906020012060001c6104749190611b13565b905060016006600083815260200190815260200160002060006101000a81548160ff0219169083151502179055507f3d50a0c24e97813f35595d2f1f37dbf421d5e97f37abd4e222853e9b9c82c8d533826040516104d3929190611b44565b60405180910390a18091505090565b6104ea610f33565b73ffffffffffffffffffffffffffffffffffffffff168173ffffffffffffffffffffffffffffffffffffffff1614610557576040517f08c379a000000000000000000000000000000000000000000000000000000000815260040161054e90611bf0565b60405180910390fd5b6105618282611022565b5050565b7f352d05fe3946dbe49277552ba941e744d5a96d9c60bc1ba0ea5f1d3ae000f7c881565b60006105b0826001600086815260200190815260200160002061105690919063ffffffff16565b905092915050565b600080600084815260200190815260200160002060000160008373ffffffffffffffffffffffffffffffffffffffff1673ffffffffffffffffffffffffffffffffffffffff16815260200190815260200160002060009054906101000a900460ff16905092915050565b61064c7f6270edb7c868f86fda4adedba75108201087268ea345934db8bad688e1feb91b336105b8565b61068b576040517f08c379a000000000000000000000000000000000000000000000000000000000815260040161068290611c5c565b60405180910390fd5b806005819055507f0f4f9dbb729778e455b47da600927c51653092f52835705824cd1db65a29ed0d6005546040516106c391906118e0565b60405180910390a150565b6000801b81565b60006106f260016000848152602001908152602001600020611070565b9050919050565b6107237f352d05fe3946dbe49277552ba941e744d5a96d9c60bc1ba0ea5f1d3ae000f7c8336105b8565b610762576040517f08c379a000000000000000000000000000000000000000000000000000000000815260040161075990611cc8565b60405180910390fd5b6006600082815260200190815260200160002060009054906101000a900460ff166107c2576040517f08c379a00000000000000000000000000000000000000000000000000000000081526004016107b990611d5a565b60405180910390fd5b600060405180606001604052803373ffffffffffffffffffffffffffffffffffffffff1681526020018473ffffffffffffffffffffffffffffffffffffffff1681526020018581525090506007600083815260200190815260200160002081908060018154018082558091505060019003906000526020600020906003020160009091909190915060008201518160000160006101000a81548173ffffffffffffffffffffffffffffffffffffffff021916908373ffffffffffffffffffffffffffffffffffffffff16021790555060208201518160010160006101000a81548173ffffffffffffffffffffffffffffffffffffffff021916908373ffffffffffffffffffffffffffffffffffffffff160217905550604082015181600201555050600060076000848152602001908152602001600020805490509050600554811415610a8f576000805b60076000868152602001908152602001600020805490508110156109895761097460076000878152602001908152602001600020828154811061095357610952611d7a565b5b9060005260206000209060030201600201548361100c90919063ffffffff16565b9150808061098190611dd8565b91505061090d565b5061099d828261108590919063ffffffff16565b90506006600085815260200190815260200160002060006101000a81549060ff02191690556007600085815260200190815260200160002060006109e1919061164b565b60008590508073ffffffffffffffffffffffffffffffffffffffff1663b5d73ba483876040518363ffffffff1660e01b8152600401610a21929190611e21565b600060405180830381600087803b158015610a3b57600080fd5b505af1158015610a4f573d6000803e3d6000fd5b505050507f91b860381268a473101de3379abbb70abf7ea6c9d1735cf58b9816479ff3b7278287604051610a84929190611e4a565b60405180910390a150505b5050505050565b610a9f826103cf565b610ab081610aab610f33565b610f3b565b610aba8383611022565b505050565b610ae97f6270edb7c868f86fda4adedba75108201087268ea345934db8bad688e1feb91b336105b8565b610b28576040517f08c379a0000000000000000000000000000000000000000000000000000000008152600401610b1f90611c5c565b60405180910390fd5b610b527f352d05fe3946dbe49277552ba941e744d5a96d9c60bc1ba0ea5f1d3ae000f7c8826105b8565b15610b92576040517f08c379a0000000000000000000000000000000000000000000000000000000008152600401610b8990611ebf565b60405180910390fd5b610bbc7f352d05fe3946dbe49277552ba941e744d5a96d9c60bc1ba0ea5f1d3ae000f7c882610fd8565b610bd2600160045461100c90919063ffffffff16565b6004819055507fed46b7525d27f2470ee188e1d85693a6a8b59537b58701408b2f53588e63d1db81604051610c079190611976565b60405180910390a150565b610c3c7f6270edb7c868f86fda4adedba75108201087268ea345934db8bad688e1feb91b336105b8565b610c7b576040517f08c379a0000000000000000000000000000000000000000000000000000000008152600401610c7290611c5c565b60405180910390fd5b610ca57f352d05fe3946dbe49277552ba941e744d5a96d9c60bc1ba0ea5f1d3ae000f7c8826105b8565b610ce4576040517f08c379a0000000000000000000000000000000000000000000000000000000008152600401610cdb90611cc8565b60405180910390fd5b600160045411610d29576040517f08c379a0000000000000000000000000000000000000000000000000000000008152600401610d2090611f2b565b60405180910390fd5b610d537f352d05fe3946dbe49277552ba941e744d5a96d9c60bc1ba0ea5f1d3ae000f7c882611022565b610d69600160045461109b90919063ffffffff16565b6004819055507f8d35b822981364028d4bb40af1edcfd97f4e186c8ccf97bafcc9adc68bd58c6d81604051610d9e9190611976565b60405180910390a150565b610db382826105b8565b610e8557600160008084815260200190815260200160002060000160008373ffffffffffffffffffffffffffffffffffffffff1673ffffffffffffffffffffffffffffffffffffffff16815260200190815260200160002060006101000a81548160ff021916908315150217905550610e2a610f33565b73ffffffffffffffffffffffffffffffffffffffff168173ffffffffffffffffffffffffffffffffffffffff16837f2f8788117e7eff1d82e926ec794901d17c78024a50270940304540a733656f0d60405160405180910390a45b5050565b6000610eb1836000018373ffffffffffffffffffffffffffffffffffffffff1660001b6110b1565b905092915050565b60007f7965db0b000000000000000000000000000000000000000000000000000000007bffffffffffffffffffffffffffffffffffffffffffffffffffffffff1916827bffffffffffffffffffffffffffffffffffffffffffffffffffffffff19161480610f2c5750610f2b82611121565b5b9050919050565b600033905090565b610f4582826105b8565b610fd457610f6a8173ffffffffffffffffffffffffffffffffffffffff16601461118b565b610f788360001c602061118b565b604051602001610f8992919061205d565b6040516020818303038152906040526040517f08c379a0000000000000000000000000000000000000000000000000000000008152600401610fcb91906120e1565b60405180910390fd5b5050565b610fe28282610da9565b6110078160016000858152602001908152602001600020610e8990919063ffffffff16565b505050565b6000818361101a9190612103565b905092915050565b61102c82826113c7565b61105181600160008581526020019081526020016000206114a890919063ffffffff16565b505050565b600061106583600001836114d8565b60001c905092915050565b600061107e82600001611503565b9050919050565b600081836110939190612159565b905092915050565b600081836110a9919061218a565b905092915050565b60006110bd8383611514565b61111657826000018290806001815401808255809150506001900390600052602060002001600090919091909150558260000180549050836001016000848152602001908152602001600020819055506001905061111b565b600090505b92915050565b60007f01ffc9a7000000000000000000000000000000000000000000000000000000007bffffffffffffffffffffffffffffffffffffffffffffffffffffffff1916827bffffffffffffffffffffffffffffffffffffffffffffffffffffffff1916149050919050565b60606000600283600261119e91906121be565b6111a89190612103565b67ffffffffffffffff8111156111c1576111c0612218565b5b6040519080825280601f01601f1916602001820160405280156111f35781602001600182028036833780820191505090505b5090507f30000000000000000000000000000000000000000000000000000000000000008160008151811061122b5761122a611d7a565b5b60200101907effffffffffffffffffffffffffffffffffffffffffffffffffffffffffffff1916908160001a9053507f78000000000000000000000000000000000000000000000000000000000000008160018151811061128f5761128e611d7a565b5b60200101907effffffffffffffffffffffffffffffffffffffffffffffffffffffffffffff1916908160001a905350600060018460026112cf91906121be565b6112d99190612103565b90505b6001811115611379577f3031323334353637383961626364656600000000000000000000000000000000600f86166010811061131b5761131a611d7a565b5b1a60f81b82828151811061133257611331611d7a565b5b60200101907effffffffffffffffffffffffffffffffffffffffffffffffffffffffffffff1916908160001a905350600485901c94508061137290612247565b90506112dc565b50600084146113bd576040517f08c379a00000000000000000000000000000000000000000000000000000000081526004016113b4906122bd565b60405180910390fd5b8091505092915050565b6113d182826105b8565b156114a457600080600084815260200190815260200160002060000160008373ffffffffffffffffffffffffffffffffffffffff1673ffffffffffffffffffffffffffffffffffffffff16815260200190815260200160002060006101000a81548160ff021916908315150217905550611449610f33565b73ffffffffffffffffffffffffffffffffffffffff168173ffffffffffffffffffffffffffffffffffffffff16837ff6391f5c32d9c69d2a47ea670b442974b53935d1edc7fd64eb21e047a839171b60405160405180910390a45b5050565b60006114d0836000018373ffffffffffffffffffffffffffffffffffffffff1660001b611537565b905092915050565b60008260000182815481106114f0576114ef611d7a565b5b9060005260206000200154905092915050565b600081600001805490509050919050565b600080836001016000848152602001908152602001600020541415905092915050565b6000808360010160008481526020019081526020016000205490506000811461163f576000600182611569919061218a565b9050600060018660000180549050611581919061218a565b90508181146115f05760008660000182815481106115a2576115a1611d7a565b5b90600052602060002001549050808760000184815481106115c6576115c5611d7a565b5b90600052602060002001819055508387600101600083815260200190815260200160002081905550505b85600001805480611604576116036122dd565b5b600190038181906000526020600020016000905590558560010160008681526020019081526020016000206000905560019350505050611645565b60009150505b92915050565b508054600082556003029060005260206000209081019061166c919061166f565b50565b5b808211156116d857600080820160006101000a81549073ffffffffffffffffffffffffffffffffffffffff02191690556001820160006101000a81549073ffffffffffffffffffffffffffffffffffffffff0219169055600282016000905550600301611670565b5090565b600080fd5b60007fffffffff0000000000000000000000000000000000000000000000000000000082169050919050565b611716816116e1565b811461172157600080fd5b50565b6000813590506117338161170d565b92915050565b60006020828403121561174f5761174e6116dc565b5b600061175d84828501611724565b91505092915050565b60008115159050919050565b61177b81611766565b82525050565b60006020820190506117966000830184611772565b92915050565b6000819050919050565b6117af8161179c565b82525050565b60006020820190506117ca60008301846117a6565b92915050565b6117d98161179c565b81146117e457600080fd5b50565b6000813590506117f6816117d0565b92915050565b600060208284031215611812576118116116dc565b5b6000611820848285016117e7565b91505092915050565b600073ffffffffffffffffffffffffffffffffffffffff82169050919050565b600061185482611829565b9050919050565b61186481611849565b811461186f57600080fd5b50565b6000813590506118818161185b565b92915050565b6000806040838503121561189e5761189d6116dc565b5b60006118ac858286016117e7565b92505060206118bd85828601611872565b9150509250929050565b6000819050919050565b6118da816118c7565b82525050565b60006020820190506118f560008301846118d1565b92915050565b611904816118c7565b811461190f57600080fd5b50565b600081359050611921816118fb565b92915050565b6000806040838503121561193e5761193d6116dc565b5b600061194c858286016117e7565b925050602061195d85828601611912565b9150509250929050565b61197081611849565b82525050565b600060208201905061198b6000830184611967565b92915050565b6000602082840312156119a7576119a66116dc565b5b60006119b584828501611912565b91505092915050565b6000806000606084860312156119d7576119d66116dc565b5b60006119e586828701611912565b93505060206119f686828701611872565b9250506040611a0786828701611912565b9150509250925092565b600060208284031215611a2757611a266116dc565b5b6000611a3584828501611872565b91505092915050565b6000819050919050565b611a59611a54826118c7565b611a3e565b82525050565b60008160601b9050919050565b6000611a7782611a5f565b9050919050565b6000611a8982611a6c565b9050919050565b611aa1611a9c82611849565b611a7e565b82525050565b6000611ab38286611a48565b602082019150611ac38285611a90565b601482019150611ad38284611a48565b602082019150819050949350505050565b7f4e487b7100000000000000000000000000000000000000000000000000000000600052601260045260246000fd5b6000611b1e826118c7565b9150611b29836118c7565b925082611b3957611b38611ae4565b5b828206905092915050565b6000604082019050611b596000830185611967565b611b6660208301846118d1565b9392505050565b600082825260208201905092915050565b7f416363657373436f6e74726f6c3a2063616e206f6e6c792072656e6f756e636560008201527f20726f6c657320666f722073656c660000000000000000000000000000000000602082015250565b6000611bda602f83611b6d565b9150611be582611b7e565b604082019050919050565b60006020820190508181036000830152611c0981611bcd565b9050919050565b7f4e6f7420616e206f776e65722100000000000000000000000000000000000000600082015250565b6000611c46600d83611b6d565b9150611c5182611c10565b602082019050919050565b60006020820190508181036000830152611c7581611c39565b9050919050565b7f4e6f7420616e206f7261636c6521000000000000000000000000000000000000600082015250565b6000611cb2600e83611b6d565b9150611cbd82611c7c565b602082019050919050565b60006020820190508181036000830152611ce181611ca5565b9050919050565b7f546869732072657175657374206973206e6f7420696e206d792070656e64696e60008201527f67206c6973742e00000000000000000000000000000000000000000000000000602082015250565b6000611d44602783611b6d565b9150611d4f82611ce8565b604082019050919050565b60006020820190508181036000830152611d7381611d37565b9050919050565b7f4e487b7100000000000000000000000000000000000000000000000000000000600052603260045260246000fd5b7f4e487b7100000000000000000000000000000000000000000000000000000000600052601160045260246000fd5b6000611de3826118c7565b91507fffffffffffffffffffffffffffffffffffffffffffffffffffffffffffffffff821415611e1657611e15611da9565b5b600182019050919050565b6000604082019050611e3660008301856118d1565b611e4360208301846118d1565b9392505050565b6000604082019050611e5f60008301856118d1565b611e6c6020830184611967565b9392505050565b7f416c726561647920616e206f7261636c65210000000000000000000000000000600082015250565b6000611ea9601283611b6d565b9150611eb482611e73565b602082019050919050565b60006020820190508181036000830152611ed881611e9c565b9050919050565b7f446f206e6f742072656d6f766520746865206c617374206f7261636c65210000600082015250565b6000611f15601e83611b6d565b9150611f2082611edf565b602082019050919050565b60006020820190508181036000830152611f4481611f08565b9050919050565b600081905092915050565b7f416363657373436f6e74726f6c3a206163636f756e7420000000000000000000600082015250565b6000611f8c601783611f4b565b9150611f9782611f56565b601782019050919050565b600081519050919050565b60005b83811015611fcb578082015181840152602081019050611fb0565b83811115611fda576000848401525b50505050565b6000611feb82611fa2565b611ff58185611f4b565b9350612005818560208601611fad565b80840191505092915050565b7f206973206d697373696e6720726f6c6520000000000000000000000000000000600082015250565b6000612047601183611f4b565b915061205282612011565b601182019050919050565b600061206882611f7f565b91506120748285611fe0565b915061207f8261203a565b915061208b8284611fe0565b91508190509392505050565b6000601f19601f8301169050919050565b60006120b382611fa2565b6120bd8185611b6d565b93506120cd818560208601611fad565b6120d681612097565b840191505092915050565b600060208201905081810360008301526120fb81846120a8565b905092915050565b600061210e826118c7565b9150612119836118c7565b9250827fffffffffffffffffffffffffffffffffffffffffffffffffffffffffffffffff0382111561214e5761214d611da9565b5b828201905092915050565b6000612164826118c7565b915061216f836118c7565b92508261217f5761217e611ae4565b5b828204905092915050565b6000612195826118c7565b91506121a0836118c7565b9250828210156121b3576121b2611da9565b5b828203905092915050565b60006121c9826118c7565b91506121d4836118c7565b9250817fffffffffffffffffffffffffffffffffffffffffffffffffffffffffffffffff048311821515161561220d5761220c611da9565b5b828202905092915050565b7f4e487b7100000000000000000000000000000000000000000000000000000000600052604160045260246000fd5b6000612252826118c7565b9150600082141561226657612265611da9565b5b600182039050919050565b7f537472696e67733a20686578206c656e67746820696e73756666696369656e74600082015250565b60006122a7602083611b6d565b91506122b282612271565b602082019050919050565b600060208201905081810360008301526122d68161229a565b9050919050565b7f4e487b7100000000000000000000000000000000000000000000000000000000600052603160045260246000fdfea2646970667358221220c70b3325f7091c884ebb7f832cff6f8e42341ae72ee9916e66764ea12dc4641b64736f6c634300080b0033",
  "immutableReferences": {},
  "source": "// SPDX-License-Identifier: MIT\r\npragma solidity >=0.4.22 <0.9.0;\r\n\r\nimport \"./CallerContractInterface.sol\";\r\nimport \"@openzeppelin/contracts/access/AccessControlEnumerable.sol\";\r\nimport \"@openzeppelin/contracts/utils/math/SafeMath.sol\";\r\n\r\ncontract EthPriceOracle is AccessControlEnumerable {\r\n    using SafeMath for uint256;\r\n\r\n    bytes32 public constant ORACLE = keccak256(\"ORACLE\");\r\n    bytes32 public constant OWNER = keccak256(\"OWNER\");\r\n\r\n    struct Response {\r\n        address oracleAddress;\r\n        address callerAddress;\r\n        uint256 ethPrice;\r\n    }\r\n\r\n    uint256 private randNonce = 0;\r\n    uint256 private modulus = 1000;\r\n    uint256 private numOracles = 0;\r\n    uint256 private threshold = 0;\r\n\r\n    mapping(uint256 => bool) pendingRequests;\r\n    mapping(uint256 => Response[]) requestIdToResponse;\r\n\r\n    event GetLatestEthPriceEvent(address callerAddress, uint256 id);\r\n    event SetLatestEthPriceEvent(uint256 ethPrice, address callerAddress);\r\n    event AddOracleEvent(address oracleAddress);\r\n    event RemoveOracleEvent(address oracleAddress);\r\n    event SetThresholdEvent(uint256 threshold);\r\n\r\n    constructor(address _owner) {\r\n        _setupRole(OWNER, _owner);\r\n        _setupRole(ORACLE, _owner);\r\n        _setRoleAdmin(ORACLE, OWNER);\r\n    }\r\n\r\n    function addOracle(address _oracle) public {\r\n        require(hasRole(OWNER, msg.sender), \"Not an owner!\");\r\n        require(!hasRole(ORACLE, _oracle), \"Already an oracle!\");\r\n\r\n        _grantRole(ORACLE, _oracle);\r\n        numOracles = numOracles.add(1);\r\n\r\n        emit AddOracleEvent(_oracle);\r\n    }\r\n\r\n    function removeOracle(address _oracle) public {\r\n        require(hasRole(OWNER, msg.sender), \"Not an owner!\");\r\n        require(hasRole(ORACLE, _oracle), \"Not an oracle!\");\r\n        require(numOracles > 1, \"Do not remove the last oracle!\");\r\n\r\n        _revokeRole(ORACLE, _oracle);\r\n        numOracles = numOracles.sub(1);\r\n\r\n        emit RemoveOracleEvent(_oracle);\r\n    }\r\n\r\n    function setThreshold(uint256 _threshold) public {\r\n        require(hasRole(OWNER, msg.sender), \"Not an owner!\");\r\n\r\n        threshold = _threshold;\r\n\r\n        emit SetThresholdEvent(threshold);\r\n    }\r\n\r\n    function getLatestEthPrice() public returns (uint256) {\r\n        randNonce = randNonce.add(1);\r\n        uint256 id = uint256(keccak256(abi.encodePacked(block.timestamp, msg.sender, randNonce))) % modulus;\r\n        pendingRequests[id] = true;\r\n\r\n        emit GetLatestEthPriceEvent(msg.sender, id);\r\n        return id;\r\n    }\r\n\r\n    function setLatestEthPrice(uint256 _ethPrice, address _callerAddress, uint256 _id) public {\r\n        require(hasRole(ORACLE, msg.sender), \"Not an oracle!\");\r\n        require(pendingRequests[_id], \"This request is not in my pending list.\");\r\n        \r\n        Response memory resp = Response(msg.sender, _callerAddress, _ethPrice);\r\n        requestIdToResponse[_id].push(resp);\r\n\r\n        uint256 numResponses = requestIdToResponse[_id].length;\r\n        if (numResponses == threshold) {\r\n            uint256 computedEthPrice = 0;\r\n            for (uint256 f = 0; f < requestIdToResponse[_id].length; f++) {\r\n                computedEthPrice = computedEthPrice.add(requestIdToResponse[_id][f].ethPrice);\r\n            }\r\n            computedEthPrice = computedEthPrice.div(numResponses);\r\n\r\n            delete pendingRequests[_id];\r\n            delete requestIdToResponse[_id];\r\n\r\n            CallerContractInterface callerContractInstance;\r\n            callerContractInstance = CallerContractInterface(_callerAddress);\r\n            callerContractInstance.callback(computedEthPrice, _id);\r\n            emit SetLatestEthPriceEvent(computedEthPrice, _callerAddress);\r\n        }\r\n    }\r\n}\r\n",
  "sourcePath": "E:/LamViec/STECH_Corp/Intership/ethpriceoracle/contracts/EthPriceOracle.sol",
  "compiler": {
    "name": "solc",
    "version": "0.8.11+commit.d7f03943.Emscripten.clang"
  },
  "schemaVersion": "3.3.4",
  "updatedAt": "2022-01-24T03:59:03.793Z",
  "networkType": "ethereum",
  "devdoc": {
    "kind": "dev",
    "methods": {
      "getRoleAdmin(bytes32)": {
        "details": "Returns the admin role that controls `role`. See {grantRole} and {revokeRole}. To change a role's admin, use {_setRoleAdmin}."
      },
      "getRoleMember(bytes32,uint256)": {
        "details": "Returns one of the accounts that have `role`. `index` must be a value between 0 and {getRoleMemberCount}, non-inclusive. Role bearers are not sorted in any particular way, and their ordering may change at any point. WARNING: When using {getRoleMember} and {getRoleMemberCount}, make sure you perform all queries on the same block. See the following https://forum.openzeppelin.com/t/iterating-over-elements-on-enumerableset-in-openzeppelin-contracts/2296[forum post] for more information."
      },
      "getRoleMemberCount(bytes32)": {
        "details": "Returns the number of accounts that have `role`. Can be used together with {getRoleMember} to enumerate all bearers of a role."
      },
      "grantRole(bytes32,address)": {
        "details": "Grants `role` to `account`. If `account` had not been already granted `role`, emits a {RoleGranted} event. Requirements: - the caller must have ``role``'s admin role."
      },
      "hasRole(bytes32,address)": {
        "details": "Returns `true` if `account` has been granted `role`."
      },
      "renounceRole(bytes32,address)": {
        "details": "Revokes `role` from the calling account. Roles are often managed via {grantRole} and {revokeRole}: this function's purpose is to provide a mechanism for accounts to lose their privileges if they are compromised (such as when a trusted device is misplaced). If the calling account had been revoked `role`, emits a {RoleRevoked} event. Requirements: - the caller must be `account`."
      },
      "revokeRole(bytes32,address)": {
        "details": "Revokes `role` from `account`. If `account` had been granted `role`, emits a {RoleRevoked} event. Requirements: - the caller must have ``role``'s admin role."
      },
      "supportsInterface(bytes4)": {
        "details": "See {IERC165-supportsInterface}."
      }
    },
    "version": 1
  },
  "userdoc": {
    "kind": "user",
    "methods": {},
    "version": 1
  }
}